{"abi":[{"type":"constructor","inputs":[{"name":"_stakingToken","type":"address","internalType":"contract IERC20"},{"name":"_rewardRatePerBlock","type":"uint256","internalType":"uint256"},{"name":"_launchTime","type":"uint256","internalType":"uint256"},{"name":"_duration","type":"uint256","internalType":"uint256"}],"stateMutability":"nonpayable"},{"type":"function","name":"calculateEarnedRewards","inputs":[{"name":"account","type":"address","internalType":"address"}],"outputs":[{"name":"","type":"uint256","internalType":"uint256"}],"stateMutability":"view"},{"type":"function","name":"calculatePendingRewards","inputs":[],"outputs":[{"name":"","type":"uint256","internalType":"uint256"}],"stateMutability":"view"},{"type":"function","name":"claimReward","inputs":[],"outputs":[],"stateMutability":"nonpayable"},{"type":"function","name":"closureTime","inputs":[],"outputs":[{"name":"","type":"uint256","internalType":"uint256"}],"stateMutability":"view"},{"type":"function","name":"commenceUnstaking","inputs":[],"outputs":[{"name":"","type":"bool","internalType":"bool"}],"stateMutability":"nonpayable"},{"type":"function","name":"lastApplicableTime","inputs":[],"outputs":[{"name":"","type":"uint256","internalType":"uint256"}],"stateMutability":"view"},{"type":"function","name":"lastUpdateTime","inputs":[],"outputs":[{"name":"","type":"uint256","internalType":"uint256"}],"stateMutability":"view"},{"type":"function","name":"launchTime","inputs":[],"outputs":[{"name":"","type":"uint256","internalType":"uint256"}],"stateMutability":"view"},{"type":"function","name":"owner","inputs":[],"outputs":[{"name":"","type":"address","internalType":"address"}],"stateMutability":"view"},{"type":"function","name":"renounceOwnership","inputs":[],"outputs":[],"stateMutability":"nonpayable"},{"type":"function","name":"rewardPerToken","inputs":[],"outputs":[{"name":"","type":"uint256","internalType":"uint256"}],"stateMutability":"view"},{"type":"function","name":"rewardPerTokenAccrued","inputs":[],"outputs":[{"name":"","type":"uint256","internalType":"uint256"}],"stateMutability":"view"},{"type":"function","name":"rewardRatePerBlock","inputs":[],"outputs":[{"name":"","type":"uint256","internalType":"uint256"}],"stateMutability":"view"},{"type":"function","name":"rewardsPendingAccumulated","inputs":[],"outputs":[{"name":"","type":"uint256","internalType":"uint256"}],"stateMutability":"view"},{"type":"function","name":"setUnstakeFeePercent","inputs":[{"name":"fee","type":"uint256","internalType":"uint256"}],"outputs":[],"stateMutability":"nonpayable"},{"type":"function","name":"setUnstakeTime","inputs":[{"name":"coolDownTime","type":"uint256","internalType":"uint256"}],"outputs":[],"stateMutability":"nonpayable"},{"type":"function","name":"stake","inputs":[],"outputs":[],"stateMutability":"payable"},{"type":"function","name":"stakers","inputs":[{"name":"","type":"address","internalType":"address"}],"outputs":[{"name":"stakedAmount","type":"uint256","internalType":"uint256"},{"name":"debtInRewards","type":"uint256","internalType":"uint256"},{"name":"earnedRewards","type":"uint256","internalType":"uint256"},{"name":"unstakeStartTime","type":"uint256","internalType":"uint256"}],"stateMutability":"view"},{"type":"function","name":"stakingToken","inputs":[],"outputs":[{"name":"","type":"address","internalType":"contract IERC20"}],"stateMutability":"view"},{"type":"function","name":"totalRewardsAccrued","inputs":[],"outputs":[{"name":"","type":"uint256","internalType":"uint256"}],"stateMutability":"view"},{"type":"function","name":"totalStakedAmount","inputs":[],"outputs":[{"name":"","type":"uint256","internalType":"uint256"}],"stateMutability":"view"},{"type":"function","name":"transferOwnership","inputs":[{"name":"newOwner","type":"address","internalType":"address"}],"outputs":[],"stateMutability":"nonpayable"},{"type":"function","name":"unstakeCooldown","inputs":[],"outputs":[{"name":"","type":"uint256","internalType":"uint256"}],"stateMutability":"view"},{"type":"function","name":"unstakeFeeAccumulated","inputs":[],"outputs":[{"name":"","type":"uint256","internalType":"uint256"}],"stateMutability":"view"},{"type":"function","name":"unstakeFeePercentage","inputs":[],"outputs":[{"name":"","type":"uint256","internalType":"uint256"}],"stateMutability":"view"},{"type":"function","name":"withdrawRemainingTokens","inputs":[],"outputs":[],"stateMutability":"nonpayable"},{"type":"function","name":"withdrawStake","inputs":[],"outputs":[],"stateMutability":"nonpayable"},{"type":"event","name":"Check","inputs":[{"name":"amount","type":"uint256","indexed":false,"internalType":"uint256"},{"name":"u","type":"uint256","indexed":false,"internalType":"uint256"}],"anonymous":false},{"type":"event","name":"OwnershipTransferred","inputs":[{"name":"previousOwner","type":"address","indexed":true,"internalType":"address"},{"name":"newOwner","type":"address","indexed":true,"internalType":"address"}],"anonymous":false},{"type":"event","name":"RewardPaid","inputs":[{"name":"user","type":"address","indexed":true,"internalType":"address"},{"name":"reward","type":"uint256","indexed":false,"internalType":"uint256"}],"anonymous":false},{"type":"event","name":"Staked","inputs":[{"name":"user","type":"address","indexed":true,"internalType":"address"},{"name":"amount","type":"uint256","indexed":false,"internalType":"uint256"}],"anonymous":false},{"type":"event","name":"UnstakeCooldownUpdated","inputs":[{"name":"newCooldown","type":"uint256","indexed":false,"internalType":"uint256"}],"anonymous":false},{"type":"event","name":"UnstakeFeePercentageUpdated","inputs":[{"name":"newFeePercentage","type":"uint256","indexed":false,"internalType":"uint256"}],"anonymous":false},{"type":"event","name":"UnstakeStarted","inputs":[{"name":"user","type":"address","indexed":true,"internalType":"address"}],"anonymous":false},{"type":"event","name":"Unstaked","inputs":[{"name":"user","type":"address","indexed":true,"internalType":"address"},{"name":"amount","type":"uint256","indexed":false,"internalType":"uint256"}],"anonymous":false},{"type":"error","name":"AlreadyUnstaking","inputs":[]},{"type":"error","name":"OwnableInvalidOwner","inputs":[{"name":"owner","type":"address","internalType":"address"}]},{"type":"error","name":"OwnableUnauthorizedAccount","inputs":[{"name":"account","type":"address","internalType":"address"}]},{"type":"error","name":"ReentrancyGuardReentrantCall","inputs":[]},{"type":"error","name":"StakingNotStartedYet","inputs":[]},{"type":"error","name":"StakingPeriodEnded","inputs":[]},{"type":"error","name":"ZeroStakeAmount","inputs":[]}],"bytecode":{"object":"0x608060405262093a8060085560006009553480156200001d57600080fd5b506040516200168838038062001688833981016040819052620000409162000109565b600160005533806200006c57604051631e4fbdf760e01b81526000600482015260240160405180910390fd5b6200007781620000b7565b50600280546001600160a01b0319166001600160a01b0386161790556005839055600a829055620000a9818362000156565b600b55506200017e92505050565b600180546001600160a01b038381166001600160a01b0319831681179093556040519116919082907f8be0079c531659141344cd1fd0a4f28419497f9722a3daafe3b4186f6b6457e090600090a35050565b600080600080608085870312156200012057600080fd5b84516001600160a01b03811681146200013857600080fd5b60208601516040870151606090970151919890975090945092505050565b808201808211156200017857634e487b7160e01b600052601160045260246000fd5b92915050565b6114fa806200018e6000396000f3fe60806040526004361061019c5760003560e01c8063860c19f3116100ec578063b88a802f1161008a578063cd3daf9d11610064578063cd3daf9d14610435578063d3cd1c7c1461044a578063e6a1d27d1461046a578063f2fde38b1461048057600080fd5b8063b88a802f146103f5578063bed9d8611461040a578063c8f33c911461041f57600080fd5b806390870492116100c657806390870492146103425780639168ae72146103585780639df04d5c146103ba578063ac1c3047146103d057600080fd5b8063860c19f3146102f95780638afbf6691461030f5780638da5cb5b1461032457600080fd5b8063567e98f911610159578063790ca41311610133578063790ca413146102a25780637c777ec9146102b85780637d21583a146102cd5780637eefd5ae146102e357600080fd5b8063567e98f91461023f578063715018a61461025557806372f702f31461026a57600080fd5b806307ebf2e4146101a157806313f9f340146101ca57806323fac263146101ec5780633a4b66f1146102015780634a5dabb9146102095780635212cca81461021f575b600080fd5b3480156101ad57600080fd5b506101b7600d5481565b6040519081526020015b60405180910390f35b3480156101d657600080fd5b506101ea6101e53660046113b0565b6104a0565b005b3480156101f857600080fd5b506101b7610550565b6101ea610568565b34801561021557600080fd5b506101b760075481565b34801561022b57600080fd5b506101ea61023a3660046113b0565b610734565b34801561024b57600080fd5b506101b760035481565b34801561026157600080fd5b506101ea6107d2565b34801561027657600080fd5b5060025461028a906001600160a01b031681565b6040516001600160a01b0390911681526020016101c1565b3480156102ae57600080fd5b506101b7600a5481565b3480156102c457600080fd5b506101b76107e4565b3480156102d957600080fd5b506101b7600b5481565b3480156102ef57600080fd5b506101b760085481565b34801561030557600080fd5b506101b760045481565b34801561031b57600080fd5b506101ea610834565b34801561033057600080fd5b506001546001600160a01b031661028a565b34801561034e57600080fd5b506101b760055481565b34801561036457600080fd5b5061039a6103733660046113c9565b600e6020526000908152604090208054600182015460028301546003909301549192909184565b6040805194855260208501939093529183015260608201526080016101c1565b3480156103c657600080fd5b506101b7600c5481565b3480156103dc57600080fd5b506103e5610a11565b60405190151581526020016101c1565b34801561040157600080fd5b506101ea610b7e565b34801561041657600080fd5b506101ea610d74565b34801561042b57600080fd5b506101b760065481565b34801561044157600080fd5b506101b761111b565b34801561045657600080fd5b506101b76104653660046113c9565b61118d565b34801561047657600080fd5b506101b760095481565b34801561048c57600080fd5b506101ea61049b3660046113c9565b611205565b6104a8611243565b6213c6808111156105145760405162461bcd60e51b815260206004820152602b60248201527f436f6f6c20446f776e2074696d65206d757374206265206265747765656e203060448201526a20746f203230206461797360a81b60648201526084015b60405180910390fd5b60088190556040518181527f2cb2db544df1eec6eb85ae863778d6fae7439fc79c2d7f1ce458c59de497a56d906020015b60405180910390a150565b6000600b5442101561056157504290565b50600b5490565b610570611270565b3361057961111b565b6007556105846107e4565b600d5561058f610550565b6006556001600160a01b0381166000908152600e6020526040812060038101549091036105cd576105bf8261118d565b600282015560075460018201555b3460008190036105f05760405163f69a94d360e01b815260040160405180910390fd5b600a544210156106135760405163b4285d5560e01b815260040160405180910390fd5b600b54421115610636576040516326e904fb60e21b815260040160405180910390fd5b336000908152600e602052604090206003810154156106a55760405162461bcd60e51b815260206004820152602560248201527f43616e6e6f74207374616b6520616674657220696e6974696174696e6720756e6044820152647374616b6560d81b606482015260840161050b565b81600360008282546106b79190611408565b9250508190555081600460008282546106d09190611408565b90915550508054829082906000906106e9908490611408565b909155505060405182815233907f9e71bc8eea02a63969f509818f2dafb9254532904319f9dbda79b67bd34a5f3d906020015b60405180910390a2505050506107326001600055565b565b61073c611243565b60c881111561079d5760405162461bcd60e51b815260206004820152602760248201527f556e7374616b652066656520657863656564732035252c206d6178696d756d20604482015266185b1b1bddd95960ca1b606482015260840161050b565b60098190556040518181527f32ea9c36f51cd43d6df05b146f3a31f8cb1181415b3f40b65bcfa74f95191ddb90602001610545565b6107da611243565b610732600061129a565b6004546000908082036107f9575050600d5490565b60006108036112ec565b905060006108118383611437565b90508082600d546108229190611408565b61082c919061144b565b935050505090565b600061083e61111b565b6007556108496107e4565b600d55610854610550565b6006556001600160a01b0381166000908152600e602052604081206003810154909103610892576108848261118d565b600282015560075460018201555b61089a611243565b60006108a461131a565b90506000670de0b6b3a76400006108b96107e4565b6108c3919061145e565b9050600b54421115806108d65750808211155b1561093c5760405162461bcd60e51b815260206004820152603060248201527f5769746864726177616c206e6f7420616c6c6f77656420796574206f7220696e60448201526f73756666696369656e742066756e647360801b606482015260840161050b565b6000610948828461144b565b60025460405163a9059cbb60e01b8152336004820152602481018390529192506001600160a01b03169063a9059cbb906044016020604051808303816000875af115801561099a573d6000803e3d6000fd5b505050506040513d601f19601f820116820180604052508101906109be9190611472565b610a0a5760405162461bcd60e51b815260206004820152601760248201527f546f6b656e207769746864726177616c206661696c6564000000000000000000604482015260640161050b565b5050505050565b600033610a1c61111b565b600755610a276107e4565b600d55610a32610550565b6006556001600160a01b0381166000908152600e602052604081206003810154909103610a7057610a628261118d565b600282015560075460018201555b336000908152600e602052604090208054610acd5760405162461bcd60e51b815260206004820152601f60248201527f596f7520686176656e2774207374616b656420616e7920455448207965742e00604482015260640161050b565b600381015415610b2a5760405162461bcd60e51b815260206004820152602260248201527f556e7374616b652070726f6365737320616c726561647920696e697469617465604482015261321760f11b606482015260840161050b565b426003820155805460048054600090610b4490849061144b565b909155505060405133907fbcc9e6c20cbf30c12685ef01f3fb32279f33ea55d4703bd800f023fab654b89990600090a26001935050505090565b610b86611270565b33610b8f61111b565b600755610b9a6107e4565b600d55610ba5610550565b6006556001600160a01b0381166000908152600e602052604081206003810154909103610be357610bd58261118d565b600282015560075460018201555b336000908152600e602052604090206002810154801580610c0a5750610c0761131a565b81115b15610c575760405162461bcd60e51b815260206004820152601d60248201527f496e73756666696369656e742072657761726473206f722066756e6473000000604482015260640161050b565b610c6981670de0b6b3a7640000611494565b600d6000828254610c7a919061144b565b909155505060006002838101919091555460405163a9059cbb60e01b8152336004820152602481018390526001600160a01b039091169063a9059cbb906044016020604051808303816000875af1158015610cd9573d6000803e3d6000fd5b505050506040513d601f19601f82011682018060405250810190610cfd9190611472565b610d425760405162461bcd60e51b815260206004820152601660248201527514995dd85c99081d1c985b9cd9995c8819985a5b195960521b604482015260640161050b565b60405181815233907fe2403640ba68fed3a2f88b7557551d1993f84b99bb10ff833f0cf8db0c5e04869060200161071c565b610d7c611270565b33610d8561111b565b600755610d906107e4565b600d55610d9b610550565b6006556001600160a01b0381166000908152600e602052604081206003810154909103610dd957610dcb8261118d565b600282015560075460018201555b336000908152600e602052604090208054610e265760405162461bcd60e51b815260206004820152600d60248201526c139bc8195d1a081cdd185ad959609a1b604482015260640161050b565b6000816003015411610e705760405162461bcd60e51b8152602060048201526013602482015272155b9cdd185ad9481b9bdd081cdd185c9d1959606a1b604482015260640161050b565b6008548160030154610e829190611408565b421015610ed15760405162461bcd60e51b815260206004820152601a60248201527f436f6f6c20646f776e20796574206e6f742066696e6973686564000000000000604482015260640161050b565b8054600282015460095460009061271090610eec9085611494565b610ef6919061145e565b90506000610f04828561144b565b90506000610f1061131a565b905082600c6000828254610f249190611408565b925050819055508460036000828254610f3d919061144b565b90915550506000808755600187018190556003870155818415801590610f635750848210155b15610fb357610f7a85670de0b6b3a7640000611494565b600d5410610fab57610f9485670de0b6b3a7640000611494565b600d6000828254610fa5919061144b565b90915550505b600060028801555b84156110a55760025460405163a9059cbb60e01b8152336004820152602481018790526001600160a01b039091169063a9059cbb906044016020604051808303816000875af115801561100a573d6000803e3d6000fd5b505050506040513d601f19601f8201168201806040525081019061102e9190611472565b61106f5760405162461bcd60e51b815260206004820152601260248201527114995dd85c991cc81c185e4819985a5b195960721b604482015260640161050b565b60405185815233907fe2403640ba68fed3a2f88b7557551d1993f84b99bb10ff833f0cf8db0c5e04869060200160405180910390a25b604051339082156108fc029083906000818181858888f193505050501580156110d2573d6000803e3d6000fd5b5060405181815233907f0f5bb82176feb1b5e747e28471aa92156a04d9f3ab9f45f28e2d704232b93f759060200160405180910390a25050505050505050506107326001600055565b600060045460000361112e575060075490565b600060065461113b610550565b611145919061144b565b905060006004546005548361115a9190611494565b61116c90670de0b6b3a7640000611494565b611176919061145e565b9050806007546111869190611408565b9250505090565b6001600160a01b0381166000908152600e602052604081206003810154156111b9576002015492915050565b8060020154670de0b6b3a764000082600101546111d461111b565b6111de919061144b565b83546111ea9190611494565b6111f4919061145e565b6111fe9190611408565b9392505050565b61120d611243565b6001600160a01b03811661123757604051631e4fbdf760e01b81526000600482015260240161050b565b6112408161129a565b50565b6001546001600160a01b031633146107325760405163118cdaa760e01b815233600482015260240161050b565b60026000540361129357604051633ee5aeb560e01b815260040160405180910390fd5b6002600055565b600180546001600160a01b038381166001600160a01b0319831681179093556040519116919082907f8be0079c531659141344cd1fd0a4f28419497f9722a3daafe3b4186f6b6457e090600090a35050565b60006005546112f96113a3565b6113039190611494565b61131590670de0b6b3a7640000611494565b905090565b600c546003546002546040516370a0823160e01b815230600482015260009392916001600160a01b0316906370a0823190602401602060405180830381865afa15801561136b573d6000803e3d6000fd5b505050506040513d601f19601f8201168201806040525081019061138f91906114ab565b611399919061144b565b611315919061144b565b6000600654611399610550565b6000602082840312156113c257600080fd5b5035919050565b6000602082840312156113db57600080fd5b81356001600160a01b03811681146111fe57600080fd5b634e487b7160e01b600052601160045260246000fd5b8082018082111561141b5761141b6113f2565b92915050565b634e487b7160e01b600052601260045260246000fd5b60008261144657611446611421565b500690565b8181038181111561141b5761141b6113f2565b60008261146d5761146d611421565b500490565b60006020828403121561148457600080fd5b815180151581146111fe57600080fd5b808202811582820484141761141b5761141b6113f2565b6000602082840312156114bd57600080fd5b505191905056fea2646970667358221220988e0fbdb53c258d3964925a5d6044f226b5e3cbfb442f7c4bb54e70fed0ef9c64736f6c63430008180033","linkReferences":{}},"methodIdentifiers":{"calculateEarnedRewards(address)":"d3cd1c7c","calculatePendingRewards()":"7c777ec9","claimReward()":"b88a802f","closureTime()":"7d21583a","commenceUnstaking()":"ac1c3047","lastApplicableTime()":"23fac263","lastUpdateTime()":"c8f33c91","launchTime()":"790ca413","owner()":"8da5cb5b","renounceOwnership()":"715018a6","rewardPerToken()":"cd3daf9d","rewardPerTokenAccrued()":"4a5dabb9","rewardRatePerBlock()":"90870492","rewardsPendingAccumulated()":"07ebf2e4","setUnstakeFeePercent(uint256)":"5212cca8","setUnstakeTime(uint256)":"13f9f340","stake()":"3a4b66f1","stakers(address)":"9168ae72","stakingToken()":"72f702f3","totalRewardsAccrued()":"860c19f3","totalStakedAmount()":"567e98f9","transferOwnership(address)":"f2fde38b","unstakeCooldown()":"7eefd5ae","unstakeFeeAccumulated()":"9df04d5c","unstakeFeePercentage()":"e6a1d27d","withdrawRemainingTokens()":"8afbf669","withdrawStake()":"bed9d861"},"id":21}